:020000040800F2
:1000000000200020F5040008D1040008D3040008F3
:1000100000000000000000000000000000000000E0
:10002000000000000000000000000000D5040008EF
:100030000000000000000000D7040008D9040008F8
:100040004505000845050008450500084505000868
:100050004505000845050008450500084505000858
:100060004505000845050008450500084505000848
:10007000450500084505000800000000450500088A
:10008000000000004505000800000000000000001E
:10009000450500080000000045050008450500086A
:1000A0004505000845050008450500084505000808
:1000B000450500084505000800000000E1040008AF
:1000C000002243088B4274D303098B425FD3030A97
:1000D0008B4244D3030B8B4228D3030C8B420DD3AA
:1000E000FF22090212BA030C8B4202D31212090238
:1000F00065D0030B8B4219D300E0090AC30B8B4276
:1001000001D3CB03C01A5241830B8B4201D38B0323
:10011000C01A5241430B8B4201D34B03C01A5241C8
:10012000030B8B4201D30B03C01A5241C30A8B420B
:1001300001D3CB02C01A5241830A8B4201D38B02F6
:10014000C01A5241430A8B4201D34B02C01A52419A
:10015000030A8B4201D30B02C01A5241CDD2C3090C
:100160008B4201D3CB01C01A524183098B4201D388
:100170008B01C01A524143098B4201D34B01C01A73
:10018000524103098B4201D30B01C01A5241C308EB
:100190008B4201D3CB00C01A524183088B4201D35A
:1001A0008B00C01A524143088B4201D34B00C01A46
:1001B0005241411A00D20146524110467047FFE7B2
:1001C00001B5002000F006F802BDC0460029F7D0B6
:1001D00076E770477047C046002B11D1002A0FD137
:1001E000002900D1002802D00021C943080007B42B
:1001F000024802A14018029003BDC046D9FFFFFF8C
:1002000003B4684601B5029803F000FF019B9E46C7
:1002100002B00CBC7047C04610B5002903D100F0F5
:1002200007F8203002E0080000F002F810BDC046D8
:100230001C2101231B04984201D3000C10391B0A16
:10024000984201D3000A08391B09984201D30009DA
:10025000043902A2105C40187047C0460403020231
:100260000101010100000000000000000448054BEE
:1002700010B5834203D0044B002B00D0984710BD2B
:1002800064010020640100200000000006480749C6
:10029000091A8B10C90FC91810B5491003D0044BA7
:1002A000002B00D0984710BD64010020640100209D
:1002B0000000000010B5074C2378002B09D1FFF790
:1002C000D5FF054B002B02D0044800E000BF0123FE
:1002D000237010BD6401002000000000944300085A
:1002E000054B10B5002B03D00449054800E000BFC2
:1002F000FFF7CCFF10BDC0460000000068010020E1
:100300009443000800B589B01422002103A803F02B
:1003100049FF0D4BD96A04221143D962D96A0A40B8
:100320000192019AD96A01221143D962DB6A134012
:100330000293029BE0231B020393059203A9034847
:1003400000F0C2F909B000BD0010024000080050E2
:1003500072B6FEE700B59DB0382200210EA803F06A
:1003600021FF1422002109A803F01CFF20220021F4
:1003700001A803F017FF1B490A681B4B1A40802392
:100380001B0113430B6022230E93213B1193102278
:1003900012921493002318930EA801F095FA0028E6
:1003A00019D10F2309930E3B0A9300230B930C934F
:1003B0000D93002109A801F04BFD00280DD1402329
:1003C00001938023DB04089301A801F02DFE00288F
:1003D00005D11DB000BDFFF7BBFFFFF7B9FFFFF769
:1003E000B7FFC04600700040FFE7FFFF30B583B0A5
:1003F00000F0D2F8FFF7AEFF05220021684603F0B7
:10040000D1FEFA20400000F0EDF8FFF77BFF03F08B
:10041000EDFB002521E06B461B78202293436A46C2
:10042000137027E06B461B78402293436A46137093
:100430002DE06B461A7880235B4213436A461370A3
:100440006B461C78AC4205D018480522694602F07C
:100450006AFE2500322000F0C5F880218901144889
:1004600000F0F8F90028D6D16B461B782022134300
:100470006A4613708021C9010D4800F0EBF900288D
:10048000D0D16B461B78402213436A4613708021FB
:100490000902074800F0DEF90028CAD06B461A7836
:1004A0007F2313406A461370CAE7C04688010020C4
:1004B00000080050054B5A6B01210A435A63996B9F
:1004C000802252050A439A637047C04600100240DA
:1004D000FEE7FEE77047704710B500F071F810BDF9
:1004E00010B5024800F076FF10BDC046600600203F
:1004F000704700000D488546FFF7FAFF0C480D498C
:100500000D4A002302E0D458C4500433C4188C426E
:10051000F9D30A4A0A4C002301E013600432A242D4
:10052000FBD303F093FEFFF761FFFEE700200020FE
:1005300000000020640100208444000864010020C1
:10054000EC0A0020FEE7000010B504000F4B1978FC
:10055000FA208000FFF7B4FD01000D4B1868FFF78B
:10056000AFFD00F0ADF800280DD1032C01D901201A
:100570000AE0013000222100404200F091F8054BD2
:100580001C60002000E0012010BDC04604000020D7
:10059000000000200800002010B5084A1368402120
:1005A0000B4313600320FFF7CFFF041E02D001248A
:1005B000200010BDFFF77EFFFAE7C0460020024092
:1005C000034A1168034B1B785B1813607047C046E1
:1005D0008001002004000020014B18687047C046CD
:1005E0008001002070B50400FFF7F6FF0500631CD2
:1005F00002D0044B1B78E418FFF7EEFF401BA0422B
:10060000FAD370BD0400002070B5002811DB830808
:10061000134DC0339B005C5903221040C000FC32D4
:1006200016008640B44389010A40824022435A5151
:1006300070BD0F230340083B9B0806339B00094A0B
:10064000944663445C6803221040C000FC321500ED
:100650008540AC4389010A40824022435A60E7E763
:1006600000E100E000ED00E0013880235B049842E7
:100670000FD2094A50600948036A1B021B0AC021B5
:1006800009060B43036200239360073313600020C5
:1006900070470120FCE7C04610E000E000ED00E0FC
:1006A00010B5FFF7B1FF10BD002805DB1F22024087
:1006B00001239340014A13607047C04600E100E007
:1006C00010B5FFF7D1FF10BDF0B5002356E08668E6
:1006D0005F000324BC40A643CC68BC403443846024
:1006E000446894434E683609012232409A402243BE
:1006F000426053E0DE080836B600375805321A402B
:1007000092000F249440A7430C69944022003A437E
:10071000325056E0052600E00026A64034003C4357
:1007200002329200444E9451444A9768EA433E0094
:10073000AE434C68E40201D53E002E433F4CA66018
:10074000E7683E0016404C68A40201D53E002E43E7
:100750003A4CE66067683E0016404C68A40301D539
:100760003E002E43354C6660266832404C68E403F8
:1007700001D52A003243314C226001330C6822003B
:10078000DA4057D001229A40250015401442F4D097
:100790004E6803243440013C012C98D94C68032254
:1007A0002240032A08D0C4685E000322B24094436A
:1007B0008A68B2402243C2604C6803222240022A67
:1007C00098D004685E0003221700B740BC434F680E
:1007D0003A40B240224302604C68C0229202144266
:1007E000CBD0174C626B0126324362639A08941C8B
:1007F000A400114EA75903241C40A4000F26A640B4
:10080000B743A026F605B04286D00E4EB0420BD0BC
:100810000D4EB0420AD00D4EB04209D00C4EB0423F
:1008200000D177E7062678E7012676E7022674E707
:10083000032672E7F0BDC0460000014000040140FD
:10084000001002400004005000080050000C00504E
:10085000001C005003690B4201D0012070470020AA
:10086000FCE7000070B553043CD504685023E35AFC
:100870000D78EE009B191B19384CA44663441C8864
:10088000A405A40D8B69A34222D31B1B8B618B692A
:10089000002B0CD10368AD005D192B88304E33401E
:1008A0008026B6015E402F4B33439BB22B8052060D
:1008B0000AD502680B789B00D21815882A4B1D4078
:1008C0002A4B2B439BB21380002C04D1200070BD17
:1008D00000238B61DBE700680A894969230002F085
:1008E0002FFBF3E704685023E35A0D78EE009B19C1
:1008F0001B191F4CA44663441C88A405A40D8B69D6
:10090000A34227D31B1B8B618B69002B0CD103687F
:10091000AD005D192B88124E33408026B6015E4033
:10092000104B33439BB22B8052060AD402680B78DB
:100930009B00D21815880C4B1D400C4B2B439BB2CF
:100940001380002CC2D000684A894969230002F054
:10095000F7FABBE700238B61D6E7C046020400002C
:100960008FBFFFFF8080FFFF8F8FFFFFC080FFFFE3
:100970000604000070B586B0041E66D0344BC35C1C
:10098000002B07D0324B0322E254206801F040FCD8
:1009900000221BE0AA239B000022C25403F0E6F9C8
:1009A000F0E7501C83001918C900611801254D702B
:1009B0001918C9000A5563180025DD7093009918AD
:1009C000C90061188D63CD630D64C2B26068824254
:1009D000E7D3002119E08A005318DB00E3181E005A
:1009E0006A36FF3600253570013E317003363570AA
:1009F0000D3635607D33FF331D605218D200A218CA
:100A00008132FF3215600131C9B28842E3D82068D3
:100A1000230010336A4662CB62C222CB22C26168D5
:100A2000A268E36801F0FEFB24230022E254084B95
:100A30000132E254E369012B02D0002006B070BD00
:100A4000200000F0D3FE0020F8E70120F6E7C046C2
:100A5000A902000070B50400AA239B00C35C012B0F
:100A60000DD0AA25AD0001234355006801F0C6FB57
:100A7000206801F0ADFE00236355002070BD022008
:100A8000FCE7000070B505000C001600530600D40A
:100A9000EEE002685023D35A0978C8001B189B184F
:100AA000AB4A944663441A889205920DA369934217
:100AB00040D99B1AA361A369002B59D16378002BFD
:100AC0003BD12B6850229A5A9B18C318A04A9446CF
:100AD00063441A889205920D1A801A889D490A4328
:100AE00092B21A802B686278002A33D150329A5A17
:100AF0009A182378DB009B18974A944663441A8817
:100B00009205920D1A801A8892490A4392B21A806D
:100B10002178280003F05EF9760439D52A68237815
:100B20009B00D21811888D4B19408D4B0B439BB203
:100B300013802DE00023A361BDE7012BD2D12B68E8
:100B400050229A5A9B18C018814B9C46604400233F
:100B50000380C7E7012ADBD14F329A5A9B182278CB
:100B6000D200D3187C4A9446634400221A80CFE70F
:100B7000760409D52B68890059180888774B1840E6
:100B8000774B03439BB20B802423E35C012B0FD0F4
:100B9000296823789B00C9180B88724A13403022B9
:100BA00053409BB2704A13439BB20B80002070BD30
:100BB00063699B186361E369D318E361216A236960
:100BC000994221D3C91A21626278002A3AD12A684F
:100BD0005021515A51182278D20052185C498C4643
:100BE000624411888905890D11803E2B18D9590955
:100BF000D80600D101391088890289B208435549C5
:100C0000014389B211801FE0002903D12423E1545C
:100C10001300D9E700232422A35423620B00D3E757
:100C2000002B05D111884B48014389B211800BE09C
:100C30005908D80700D501311088890289B20143CB
:100C4000118001E0012A06D028689BB222896169DF
:100C500001F0CCFD9CE72A685021515A51182278A6
:100C6000D20052183A498C46624499B21180EBE79F
:100C700002685023D35A0978C8001B189B18364ABB
:100C8000944663441A889205920DA369934241D316
:100C90009B1AA361A369002B68D16378002B3CD118
:100CA0002B6850229A5A9B181B18294A9446634471
:100CB0001A889205920D1A801A8826490A4392B220
:100CC0001A802B686278002A34D150329A5A9B18C5
:100CD0002278D2009B18204A944663441A889205D1
:100CE000920D1A801A881B490A4392B21A80217801
:100CF000280003F06FF8760400D549E72A682378C6
:100D00009B00D2181188154B1940154B0B439BB211
:100D100013803DE70023A361BCE7012BD1D12B68F1
:100D200050229A5A9B181B18094A94466344002281
:100D30001A80C6E7012ADAD14F329A5A9B182278D4
:100D4000D2009B18044A9446634400221A80CEE7DE
:100D5000020400000080FFFF060400008F8FFFFFE9
:100D600080C0FFFFBF8FFFFF8080FFFF760409D4A4
:100D70002B68890059180888344B1840344B0343BA
:100D80009BB20B802423E35C012B00D000E7636956
:100D90009B186361E369D318E361216A236999426F
:100DA00021D3C91A21622A686178002939D15031CA
:100DB000515A52182178C900521826498C4662446B
:100DC00011888905890D11803E2B18D95909D8063B
:100DD00000D101391088890289B208431E490143B4
:100DE00089B211801FE0002903D12423E1541300AC
:100DF000D9E7002323622422A3540B00D3E7002B5E
:100E000005D111881448014389B211800BE05908BB
:100E1000D80700D501311088890289B201431180B9
:100E200001E0012906D028689BB26289616901F05E
:100E3000DDFCADE64F31515A52182178C9005218E5
:100E400004498C46624499B21180ECE78F8FFFFF12
:100E500080C0FFFF060400000080FFFFF8B5CE460B
:100E6000474680B5040020684423C35A1BB2002BB8
:100E700000DB8AE24423C35A99B20F221D001540B9
:100E8000134200D0CEE0C90664D503889AB21B0590
:100E900000D591E012B2002AE5DA0388B84A13407F
:100EA000802213439BB2038020685023C35AB4228C
:100EB0005200A25CD2009B181B18B24A94466344AD
:100EC0001B889B059B0D22006932FF32D361002BEA
:100ED0000ED0516900290BD01500D28802F030F8ED
:100EE0006B69EA699B186B610021200002F063FFC7
:100EF0002268138899B21B05B5D4C0239B01194001
:100F00009942B0D05023D35AD2189E4B9C4662448B
:100F100013889B059B0D138023006933FF331B69E6
:100F20003E2B6DD95909DB0600D10139138889029E
:100F300089B21943944B0B439BB2138021680B88F1
:100F4000924A1340C02292015A40914B13439BB2E4
:100F50000B8088E702888F4B1A408B4B13439BB260
:100F6000038021685023CB5A2822A25CD2009B1810
:100F70005B18894A944663441B889B059B0D6364F8
:100F8000E26BD318E3630021200002F023FF242347
:100F9000E35C002B00D166E7236C002B00D062E7F6
:100FA0002422A35C2068802149420B43DBB2CC3170
:100FB00043520023A35456E75023C35AB42252008D
:100FC000A25CD2009B181B186E4A944663441B888F
:100FD0009B059B0D22006932FF32D361AC21890051
:100FE0006118D28801F0ACFF2268138864490B4075
:100FF00080210B439BB21380200002F0D1FE32E728
:10100000002B05D1138860490B439BB2138095E7F1
:101010005908DB0700D501311388890289B20B43D7
:1010200013808BE7AE00801903889FB21BB2002BA0
:1010300045DB3B0600D416E76B1C9C469B006246D2
:101040009918C9006118206880190688514A16400D
:101050004D4A324392B20280CB78012B00D105E198
:10106000FB0500D58CE120685023C35A6E1CB200EA
:101070009219D200165DF2009B181B18464A94463E
:1010800063441B889B059B0DAA005219D200A2182D
:10109000176C9F4200D85CE1AA005219D200A21836
:1010A000FF1A1764AA005219D200A218126C002A63
:1010B00000D055E13100200002F08CFED3E6038819
:1010C0002F4A1340802213439BB203807219D2002F
:1010D0006932FF329046A0447319DB00E318753380
:1010E000FF331B78002B59D120685033C25A731933
:1010F000DB00E3186933FF331B78DB00D3181B18C0
:10110000204A944663441B889B059A0D9146002B08
:1011100028D1AA005219D200A21810008530FF3041
:10112000036849464B440360083803684B44036036
:101130008132FF321368002B09D0AB005B19DB0052
:10114000E3187933FF331B68994200D389E0AB0081
:101150005B19DB00E3186933FF331978200002F0D4
:101160002AFE66E77319DB00E3181A006F32FF32BC
:1011700012887D33FF3319684B4601F0E1FEC8E762
:101180008F0F0000060400000080FFFF8FBFFFFFED
:101190008080FFFF0F8FFFFF02040000AB005B1990
:1011A000DB00E3186C33FF331B78022B34D021684B
:1011B000AB005B19DB00E3186933FF331A78920048
:1011C00089180888734A1040734A024392B20A8011
:1011D00020681B789A0082181288520423D5502266
:1011E000825ADB00D3181B186C4A944663441B8850
:1011F0009B059A0D9146002B8BD0AB005B19DB0051
:10120000E3181A007132FF3212887D33FF331968F8
:101210004B4601F095FE7CE73A0041462000FFF77F
:1012200021FB814675E75022825ADB00D3181B1838
:101230005B4A944663441B889B059A0D9146002B9C
:1012400000D166E7AB005B19DB00E3181A007332CC
:10125000FF3212887D33FF3319684B4601F070FE70
:1012600057E72068414601F0D5FAE2E6AB005B198A
:10127000DB00E31800221A6434331B78002B1BD0E8
:101280007F0635D54B78002B1FD1236850229A5A00
:101290009A1861468B005B18DB001B5DDB009B1816
:1012A0003E4A944663441A889205920D1A801A8821
:1012B0003C490A4392B21A800135AB005B19DB004E
:1012C000195D200002F086FDCDE5012BF4D12368E5
:1012D00050229A5A9A18691C8B005B18DB001B5D20
:1012E000DB009B182D4A9446634400221A80E3E7F2
:1012F0002268691C8B005B18DB00E3185B78002B0D
:1013000015D15033D35AD2188B005B18DB001B5D0C
:10131000DB009B18224A944663441A889205920D7A
:101320001A801A881F490A4392B21A80C4E7012B17
:10133000C2D14F33D35AD218691C8B005B18DB0023
:101340001B5DDB009B18164A9446634400221A80FA
:10135000B2E7AA005219D200A21800271764A1E62A
:10136000AA005619F600A619F76BFF18F763766CFA
:101370005219D200A2189B19536401F04BFA72E57E
:101380003A002000FFF77EFB6DE50020C0BCB946A7
:10139000B046F8BD8F8FFFFFC080FFFF0204000042
:1013A000060400000080FFFF70B50400AA239B0024
:1013B000C35C012B0CD0AA25AD0001234355233378
:1013C000C154006801F0FCF900236355002070BD92
:1013D0000220FCE770B50400006801F003FA030482
:1013E00018D443051AD4430426D483042BD4C3044D
:1013F00030D4030551D4030600D565E0830500D53C
:1014000090E0C0051ED5216844228B5A4A4803400B
:101410008B5217E02000FFF721FD13E021684422E2
:101420008B5A464803408B52200002F0E7FC002113
:101430002000FFF7B9FF05E0216844228B5A40489D
:1014400003408B5270BD216844228B5A3D480340B3
:101450008B52F7E721684023CA5A04208243CA52BC
:101460002168CA5A04308243CA52B8239B00E35C05
:10147000012B09D0200002F0E5FC216844228B5AA0
:10148000314803408B52DDE7B8239B000022E25431
:101490000021200000F0BFF9ECE7216840228B5AC0
:1014A000082003439BB28B5220684421435A274DA6
:1014B0002B40435221688B5A042003439BB28B522A
:1014C000200002F0ADFCBDE7216844228B5A802049
:1014D00083438B52B8239B00E35C002B1ED1216811
:1014E000043A8B5A042003439BB28B5221688B5AD7
:1014F000082003439BB28B52B8239B003F3AE2542F
:1015000022685423D25A9208183B1340B922920001
:10151000A3500121200000F07EF993E7200002F0A3
:101520007FFC8FE7216844228B5A094803408B5285
:10153000200002F05CFC85E7FFFEFFFFFFFBFFFFE2
:10154000FFBFFFFFFFDFFFFFFFEFFFFFFFF7FFFF23
:10155000FFFDFFFF70B504000D0049B2002925DB37
:1015600007262E40B0008119C9006931FF3161188A
:101570008019C00020186A30FF300026067007204E
:10158000284008700A61CB70022B19D0AA239B0057
:10159000E35C012B17D0AA25AD0001236355206819
:1015A00000F050FE00236355002070BD07262E403A
:1015B0000136B0008119C900611801264E70DEE7BE
:1015C00000230B71E2E70220EFE770B504000A0088
:1015D0004BB2002B21DB0720084083001918C900FB
:1015E0006931FF3161181B18DB00E3186A33FF33E0
:1015F00000201870072313400B70AA239B00E35CA4
:10160000012B14D0AA25AD0001236355206800F0FA
:10161000ABFF00236355002070BD07200840013058
:1016200083001918C900611801204870E2E7022000
:10163000F2E7F8B507260E40B400A119C9006931D8
:10164000FF314118A519ED0045192F007D37FF37EF
:101650003A602A008132FF321360043200231360A3
:101660006A35FF352B70A419E40004196934FF347E
:101670002670006801F0CEF80020F8BDF0B5C6462F
:1016800000B507260E40771CBD00E919C900884641
:101690008044B400A419E4000419E26323644C22DA
:1016A0009446A4444B3A61460A70A36400236364E1
:1016B00043465A70ED19ED002E540068414601F082
:1016C000A9F8002080BCB846F0BD70B504000B003E
:1016D00007220A4041688A422AD859B200291FDBF2
:1016E0009800C118C9006931FF316118C018C000E5
:1016F00020186A30FF300023037001238B700A70BA
:10170000AA239B00E35C012B14D0AA25AD00012382
:101710006355206800F0E0FF00236355002070BD92
:10172000501C83001918C900611801204870E4E7B3
:101730000120F4E70220F2E770B504000B000F224D
:101740000A4041688A4230D85AB2002A23DB072077
:10175000184082001118C9006931FF316118121850
:10176000D200A2186A32FF320020107000228A7064
:10177000073213400B70AA239B00E35C012B16D0A9
:10178000AA25AD0001236355206800F0CBFF00239C
:101790006355002070BD07201840013082001118E9
:1017A000C900611801204870E0E70120F2E702203B
:1017B000F0E710B50C060CD50724214001318C0050
:1017C0006118C9004018002A0AD10273C3800020A2
:1017D00010BD8C006118C9006931FF314018F2E773
:1017E0000122027303811B0C4381F0E70168BA23D5
:1017F0009B000122C250083B0022C25454328B5A33
:10180000012003439BB28B528B5A022003439BB2AD
:101810008B5200207047704710B5264BDA680C23B6
:101820001340082B42D00C2B07D0042B34D1214B72
:101830001B68DB063CD5204837E0910C0F230B409A
:101840001E49C85C920D03231A40541C194BDB68D7
:10185000DB0309D51A4A0023002102F0A9FB22006C
:101860000023FEF7B9FC20E0124B1B68DB0609D50C
:10187000114A0023002102F09BFB22000023FEF707
:10188000ABFC12E00F4A0023002102F091FB220082
:101890000023FEF7A1FC08E0064B5A68520B072311
:1018A0001340013380200002984010BD0448FCE73B
:1018B0000448FAE70010024000093D00AC4300086C
:1018C00000127A000024F400F0B583B0041E00D1A9
:1018D00097E2C14BDA680C251540DE6880235B0275
:1018E0001E400368DB0736D5082D2CD00C2D28D0E0
:1018F00063688022520293424DD0A022D2029342CA
:1019000050D0B54B1A68B5490A401A601A68802150
:1019100049020A400192019A1A68B1490A401A60C4
:101920006368002B4AD0FEF757FE0700AA4B1B68DE
:101930009B0310D4FEF750FEC01B6428F6D9032089
:1019400060E2002ED4D0A44B1B689B0303D56368D0
:10195000002B00D158E223689B0765D5E368042D6E
:101960003CD00C2D38D0002B00D1B0E09A490A6849
:101970000920824313430B60FEF72EFE0600964BB0
:101980001B685B0700D599E0FEF726FE801B022846
:10199000F5D9032036E2904A116880235B020B439D
:1019A0001360BDE78C4B19688022D2020A431A608B
:1019B0001968802252020A431A60B1E7FEF70CFE52
:1019C0000700854B1B689B03C5D5FEF705FEC01BB2
:1019D0006428F6D9032015E2002EC4D17E4A12688D
:1019E000520702D5002B00D110E27B4E72687D4970
:1019F0000A40216909020A437260326809218A4358
:101A000013433360FFF708FFF26812090F231340F6
:101A1000754AD35CD840754B1860754B1868FEF753
:101A200093FD002800D0EDE12368DB062DD5002DC5
:101A300060D1694B1B689B0503D5E369002B00D17E
:101A4000E6E1654A53686B490B40616A0B4353609A
:101A500053681B021B0A216A09060B435360616A23
:101A6000490B013180231B028B40D16809090F22E9
:101A70000A405D498A5CD3405C4A13605C4B18683D
:101A8000FEF762FD002800D0BCE123681B077DD56E
:101A90006369002B67D0504A136D01210B43136516
:101AA000FEF79AFD06004C4B1B6D9B076ED4FEF7AC
:101AB00093FD801B0228F6D90320A3E146494B6819
:101AC000484A13402269120213434B60ACE7424A72
:101AD000136801218B431360FEF77EFD06003E4B29
:101AE0001B685B07A0D5FEF777FD801B0228F6D99F
:101AF000032087E1E369002B22D0374A1168802355
:101B00005B000B431360FEF767FD0600324B1B685A
:101B10009B0506D4FEF760FD801B0228F6D9032042
:101B200070E12D4A536833490B40616A0B4353609F
:101B300053681B021B0A216A09060B435360A4E782
:101B4000254A13682C490B401360FEF745FD06003B
:101B5000214B1B689B0598D5FEF73EFD801B022894
:101B6000F6D903204EE11C4A136D01218B43136506
:101B7000FEF732FD0600184B1B6D9B0706D5FEF7DE
:101B80002BFD801B0228F6D903203BE123685B076D
:101B900000D48EE0104B9B6BDB001BD40E4A916B84
:101BA00080235B050B4393630126144B1B68DB0505
:101BB00028D5A36880225200934237D0002B4DD104
:101BC000054B1A6D0C490A401A651A6D0C490A40FA
:101BD0001A6531E00026E8E700100240FFFFFEFF33
:101BE000FFFFFBFFFFE0FFFFB843000800000020FD
:101BF00008000020FF1FFFFFFFFEFFFF00700040F6
:101C0000FFFBFFFF884A116880235B000B431360D2
:101C1000FEF7E2FC0700844B1B68DB05C9D4FEF726
:101C2000DBFCC01B6428F6D90320EBE07F4A116D72
:101C300080235B000B431365A368002B28D0FEF7BD
:101C4000CBFC0700794B1B6D9B0530D4FEF7C4FC21
:101C5000C01B774B9842F5D90320D3E0A022D200D5
:101C6000934209D0714B1A6D72490A401A651A6D78
:101C700071490A401A65DFE76C4B196D013AFF3A6A
:101C80000A431A65196D802252000A431A65D3E788
:101C9000FEF7A2FC0700654B1B6D9B0507D5FEF701
:101CA0009BFCC01B624B9842F5D90320AAE0012E91
:101CB00021D023689B063CD5A369002B21D05B4B28
:101CC0009A6801210A439A605A6B0A435A635B4A35
:101CD000116A80239B010B431362FEF77DFC060013
:101CE000524B9B689B0724D4FEF776FC801B02288E
:101CF000F6D9032086E04D4A936B51490B4093631C
:101D0000D7E74A4A936801218B4393604B4A136A91
:101D10004C490B401362FEF75FFC0600434B9B6887
:101D20009B0706D5FEF758FC801B0228F6D9032036
:101D300068E0A36A002B00D16CE00C2D49D0022B87
:101D400012D03A4A136840490B401360FEF744FC36
:101D50000400364B1B689B0139D5FEF73DFC001B88
:101D60000228F6D903204DE0304A136836490B406B
:101D70001360FEF731FC05002C4B1B689B0106D558
:101D8000FEF72AFC401B0228F6D903203AE0274937
:101D9000CB682E4A1340E26A206B0243606B024319
:101DA0001343CB600A6880235B0413430B60FEF788
:101DB00013FC04001D4B1B689B0106D4FEF70CFCB2
:101DC000001B0228F6D903201CE000201AE00020A6
:101DD00018E0012B20D0154BDA6880235B021340FA
:101DE000E16A8B421AD1F0239B031340216B8B4293
:101DF00016D1C0231B041A40636B9A4212D10020F3
:101E000000E0012003B0F0BD0120FBE70120F9E76D
:101E10000120F7E70020F5E70120F3E70120F1E7D3
:101E20000120EFE70120EDE70070004000100240C4
:101E300088130000FFFEFFFFFFFBFFFF00000140D3
:101E4000FFFFFFEFFFDFFFFFFFFFFFFEFFFF02FFD0
:101E500070B505000C00002800D1D1E06A4B1A686B
:101E6000012313408B4219D32B689B0706D5674A81
:101E7000D368F0218B43A9680B43D3602B68DB0741
:101E80007BD56B68022B20D0032B40D0012B44D094
:101E90005E4A126892051DD4012099E05A4A1368DF
:101EA00001218B4323431360FEF796FB0600564B3C
:101EB0001A6801231340A342D6D0FEF78DFB801B86
:101EC000534A9042F3D9032082E0504A12689203A9
:101ED00000D497E04D49CA68032082431343CB6086
:101EE000FEF77AFB06006B68022B1CD0032B28D070
:101EF000012B34D0454BDB680C221A423DD0FEF753
:101F00006BFB801B424B9842F4D9032060E03F4AB0
:101F100012689201DED401205AE03C4A126852074E
:101F2000D8D4012054E0394BDA680C231340082B35
:101F300023D0FEF751FB801B354A9042F3D9032092
:101F400046E0324BDA680C2313400C2B15D0FEF719
:101F500043FB801B2E4B9842F3D9032038E02B4BD8
:101F6000DA680C231340042B07D0FEF735FB801BE7
:101F7000274B9842F3D903202AE0234B1A68012308
:101F80001340A34225D82B685B0706D51F4AD368A8
:101F900020490B40E9680B43D3602B681B0707D52A
:101FA0001A49CB681C4A13402A69D2001343CB60FC
:101FB000FFF732FC154BDA6812090F231340174A5A
:101FC000D35CD840164B1860164B1868FEF7BCFA65
:101FD00070BD0D4A136801218B4323431360FEF744
:101FE000FBFA0600084B1A6801231340A342CAD02B
:101FF000FEF7F2FA801B064B9842F3D90320E7E77D
:102000000120E5E70120E3E7002002400010024044
:1020100088130000FFF8FFFFFFC7FFFFB843000869
:10202000000000200800002070B5040003689B0633
:1020300051D5674B9B6BDB0000D58AE0644A916BFE
:1020400080235B050B4393630126624B1B68DB0512
:1020500000D480E05E4B1B6862685340C021890356
:102060000B4206D0C0239B0211001940994200D1B7
:1020700086E0574B196DC0239B0208001840194297
:1020800015D01A40824212D023689B060FD5504BC0
:102090001A6D514911401D6D8020000328431865B9
:1020A000186D4E4D284018651965D2056FD4236808
:1020B0009B060ED56368C02292021900114091421E
:1020C00074D043490B6D6268C02080020240134304
:1020D0000B65012E74D02368DB0706D53C4AD36C10
:1020E00003218B43A1680B43D36423689B0706D568
:1020F000374AD36C0C218B43E1680B43D3642368CC
:102100005B0706D5324AD36C35490B4021690B4336
:10211000D36423681B0706D52D4AD36C31490B4085
:1021200061690B43D36423685B0606D5284AD36CE8
:102130002D490B40E1690B43D36423681B0645D549
:10214000234AD36C29490B40A1690B43D364002077
:102150003DE0002679E71F4A116880235B000B43AE
:102160001360FEF739FA05001A4B1B68DB0500D532
:1021700070E7FEF731FA401B6428F5D9032026E00A
:10218000134B1B689B0300D473E701201FE0FEF78D
:1021900023FA05000E4B1B6D9B0588D4FEF71CFA35
:1021A000401B134B9842F5D9032010E008490A68F8
:1021B00010480240C0208003034013430B6080E7B7
:1021C000034A936B0C490B40936384E7002070BD76
:1021D0000010024000700040FFFFFCFFFFFFF7FF10
:1021E000FFF3FFFFFFCFFFFFFFFFFFFBFFFFF3FF4B
:1021F00088130000FFFFCFFFFFFFFFEF4423002203
:10220000C252043B014AC2520020704780BFFFFF08
:102210004022835A02490B40835200207047C04637
:102220007F40000084B00191029203934022012379
:10223000835200238352043283520C328352002093
:1022400004B07047F0B503000D78AD0045192A8839
:10225000B9480240C878022857D00AD8002811D0BF
:10226000012804D18020C000024300200DE001209D
:102270000BE0032804D1C020C0000243002004E08A
:10228000012002E08024A4002243AC4C224392B2FD
:102290002A800D78AA009A181688A94F3E40354327
:1022A0002C43A4B214800A7B002A00D09EE04A7816
:1022B000002A37D050229C5A1C190A78D2001219D1
:1022C0008024E400A4466244CC886408640014803E
:1022D0000A7892009A181488640605D515883D403E
:1022E000984C2C43A4B21480CA78012A0FD00A78E3
:1022F00092009A18138894490B4020214B409BB2BE
:102300008E490B439BB21380CAE00020BDE70A78D8
:1023100092009B1819888C4A1140884A0A4392B24D
:102320001A80BDE050255C5B1C190A78D200121996
:10233000864CA4466244CC886408640014805C5BCC
:102340001C190A78D2001219814CA44662441488E0
:10235000A405A40D14800C693E2C28D96509E40657
:1023600000D1013D1488AD02ADB22543794C2C4318
:10237000A4B214800A7892009A181488640406D5CE
:1023800015886F4C2540744C2C43A4B214800A78F5
:10239000002A1ED192009A18138870490B40C02160
:1023A00089015940654B0B439BB2138078E0002CA8
:1023B00005D11488674D2C43A4B21480DAE7650870
:1023C000E40700D501351488AD02ADB22C4314806A
:1023D000D0E792009A18138860490B408021890148
:1023E0005940564B0B439BB2138059E0CA78022ADE
:1023F00057D00A7892009A181588594C25404F4CAE
:102400002C43A4B2148050255C5B1C190A78D200BE
:1024100012198024E400A44662440C896408640014
:1024200014805C5B1C190A78D2001219474CA44630
:1024300062444C896408640014804A78002A3BD1C5
:102440000A7892009A181488640406D515883C4CC2
:102450002540414C2C43A4B214800A7892009A186B
:102460001488640606D51588354C2540354C2C4318
:10247000A4B214800D78AD005D192C88374A144041
:10248000C022920162402D4C224392B22A800A78E7
:1024900092009B181A882C490A401443A4B21C804D
:1024A000F0BD0A7892009A181588254C25402D4CCD
:1024B0002C43A4B21480A6E70A7892009A181488D4
:1024C000640406D515881E4C2540234C2C43A4B229
:1024D00014800A7892009A181488640606D5158824
:1024E000174C2540174C2C43A4B21480CA78012AFB
:1024F00017D00C78A4001C192288134D2A402025DF
:102500006A4092B20D4D2A4392B222800A7892001C
:102510009B181988114A1140084A0A4392B21A803E
:10252000BEE70A7892009A181588074C2540034C9C
:102530002C43A4B21480E9E78F89FFFF8080FFFF5E
:102540008F8FFFFFC080FFFFBF8FFFFF04040000DD
:10255000060400000080FFFF80C0FFFF8FBFFFFF69
:102560008F8EFFFF8081FFFF10B50B7B002B33D1D7
:102570004B78002B18D00B789B00C3181A88520692
:1025800006D51C884E4A14404E4A224392B21A8005
:102590000B789B00C31819884B4A11404B4A0A43D9
:1025A00092B21A80002010BD0B789B00C3181A88C5
:1025B000520406D51C88424A1440454A224392B22E
:1025C0001A800B789B00C3181988424A11403F4A71
:1025D0000A4392B21A80E5E74B78002B37D10B788B
:1025E0009B00C3181A88520406D51C88344A14402C
:1025F000374A224392B21A800B789B00C3181A887C
:10260000520606D51C882E4A14402E4A224392B206
:102610001A800B789B00C3181C88294A1440294A49
:10262000224392B21A800C78A40004192388294A04
:102630001340264A13439BB223800B789B00C31898
:102640001988214801400A4392B21A80AAE70B7800
:102650009B00C3181A88520406D51C88184A1440D7
:102660001B4A224392B21A800B789B00C3181A8827
:10267000520606D51C88124A1440124A224392B2CE
:102680001A800B789B00C3181C880D4A1440104A0E
:10269000224392B21A800C78A400041923880A4AB3
:1026A00013400A4A13439BB223800B789B00C01847
:1026B000038808490B401A4392B2028072E7C04671
:1026C0008F8FFFFFC080FFFFBF8FFFFF8080FFFF66
:1026D00080C0FFFF8FBFFFFF4B78002B0ED00B7821
:1026E0009B00C01803880C4A1340102253409BB231
:1026F0000A4A13439BB20380002070470B789B006B
:10270000C0180388064A1340802252015A40034BE6
:1027100013439BB20380EFE7BF8FFFFF8080FFFF73
:102720008FBFFFFF10B50B7B002B3AD14B78002BEE
:102730001DD00B789B00C3181A88520606D51C883A
:10274000194A1440194A224392B21A80CB78012BBD
:1027500027D00A7892008218138815490B4020214F
:102760004B409BB213490B439BB2138019E00B788B
:102770009B00C3181A88520406D51C880A4A1440C4
:102780000D4A224392B21A800B789B00C01803882E
:102790000A4A1340C02292015A40064B13439BB28F
:1027A0000380002010BDC0468F8FFFFFC080FFFF59
:1027B000BF8FFFFF8080FFFF80C0FFFF8FBFFFFF45
:1027C000002902D14C238022C25200207047000011
:1027D0005822835A02490B439BB283520020704710
:1027E0000080FFFF4423C05A80B2704710B5013308
:1027F0005B0812188020C0008446624407E00C7811
:10280000487800022043108002320231013B002B45
:10281000F5D110BD70B505000C004A78012A35D0FD
:102820000B7B002B00D06DE28B6909698B4200D8CD
:1028300052E25B1AA3615023EA5AAA182378DB00FC
:102840009B18AB4A944663441A889205920D1A80ED
:102850003E2900D844E24A09C90600D1013A198844
:10286000920292B21143A34A0A4392B21A80237889
:102870009B00ED182B88A04A1340C02292015A40B9
:102880009E4B13439BB22B80002070BD8E6909695B
:102890008E4200D90E00237B002B2BD0E378022B35
:1028A00048D0236A9B1B2362237899006918098802
:1028B000490600D4D0E1002A00D0BCE15032AA5A27
:1028C000AA18DB009B188A4A944663441A8892052A
:1028D000920D1A803E2E00D89BE17209F10600D1BC
:1028E000013A1988920292B21143824A0A4392B283
:1028F0001A80AAE1B6B2E288616933002800FFF7C6
:1029000075FF5023EA5AAA182378DB009B187C4AEB
:10291000944663441E8022789200AA18138879494D
:102920000B4030214B409BB274490B439BB2138048
:102930000020AAE7236A994200D34FE123789B0045
:10294000EB181988704A1140704A0A4392B21A80F3
:10295000236A9B1B236223789A00AA1812885206C6
:1029600000D495E06278002A2CD15032AA5AAA18D5
:10297000DB009B185E4A944663441A889205920DC8
:102980001A803E2E0CD97209F10600D1013A19883D
:10299000920292B21143574A0A4392B21A8013E04C
:1029A000002E05D11A8853490A4392B21A800BE0CF
:1029B0007208F10700D501321988920292B20A43D7
:1029C0001A8001E0012A2DD06289B3B26169280022
:1029D000FFF70CFF63699B196361236A22699342C5
:1029E0002BD99B1B23626378002B3CD15033EA5ACE
:1029F000AA182378DB009B18414A944663441A883E
:102A00009205920D1A803E2E1BD97209F10600D153
:102A1000013A1988920292B21143364A0A4392B29D
:102A20001A8022E04F32AA5AAA18DB009B18304ABB
:102A300094466344B2B21A80C6E7002222621E00A6
:102A4000D1E7002E05D11A882A490A4392B21A808A
:102A50000BE07208F10700D501321988920292B298
:102A60000A431A8001E0012B06D02289B3B26169C2
:102A70002800FFF7BBFE4EE74F33EA5AAA18237827
:102A8000DB009B181E4A94466344B2B21A80ECE7FE
:102A90006278002A3CD15032A95A6918DA005218DB
:102AA000174B9C46624413889B059B0D13803E2E5A
:102AB0000CD97309F10600D1013B11889B029BB22E
:102AC00019430C4B0B439BB2138023E0002E05D11E
:102AD000138808490B439BB213801BE07308F1076E
:102AE00000D5013311889B029BB20B43138011E088
:102AF000060400000080FFFF8FBFFFFF8080FFFF04
:102B000002040000BF8FFFFF8F8FFFFF8081FFFF58
:102B1000012A2DD02289B3B261692800FFF766FE31
:102B200063699B196361236A226993422BD99B1BBA
:102B300023626378002B3CD15033EA5AAA182378D9
:102B4000DB009B18C04A944663441A889205920D94
:102B50001A803E2E1BD97209F10600D1013A19885C
:102B6000920292B21143B94A0A4392B21A8022E009
:102B70004F32AA5AAA18DB009B18B54A9446634400
:102B8000B2B21A80C6E7002222621E00D1E7002EF0
:102B900005D11A88AD490A4392B21A800BE0720837
:102BA000F10700D501321988920292B20A431A80C5
:102BB00001E0012B06D06289B3B261692800FFF7FA
:102BC00015FEA8E64F33EA5AAA182378DB009B18B3
:102BD0009D4A94466344B2B21A80ECE72278920090
:102BE000AA1810889B4908409B49014389B211806B
:102BF0005022A95A69182278D200521894498C465A
:102C000062449BB21380228961692800FFF7EEFDC0
:102C100081E6002E05D11A888C490A4392B21A80A7
:102C200013E07208F10700D501321988920292B2BE
:102C30000A431A8009E05022AA5AAA18DB009B18FE
:102C4000814A94466344B2B21A806289B3B2616920
:102C50002800FFF7CBFD5EE6002A2CD15032AA5A9D
:102C6000AA18DB009B187A4A944663441A88920596
:102C7000920D1A803E2E0CD97209F10600D1013A4C
:102C80001988920292B21143704A0A4392B21A8092
:102C90001BE0002E05D11A886C490A4392B21A80B3
:102CA00013E07208F10700D501321988920292B23E
:102CB0000A431A8009E05022AA5AAA18DB009B187E
:102CC000634A94466344B2B21A802289B3B26169FE
:102CD0002800FFF78BFD1EE60022A2611900AAE57D
:102CE000002905D11A8859490A4392B21A80BEE5D3
:102CF0004A08C90700D501321988920292B20A43E4
:102D00001A80B4E5CB78022B48D0012B00D00BE120
:102D100089692369994200D8CFE0C91AA161002AC4
:102D20001BD15032A95A69182278D200521848494A
:102D30008C46624411888905890D11803E2B00D88C
:102D4000BFE05909D80600D101391088890289B23B
:102D500008433E49014389B211806278002A00D0BD
:102D6000D3E05032A95A69182278D2005218364955
:102D70008C46624411888905890D11803E2B00D84C
:102D8000B1E05909DB0600D101391388890289B203
:102D900019432E4B0B439BB2138068E5002A1AD1CE
:102DA0004E33C25A82180B78DB009B18284A9918B8
:102DB0000B889B059B0D0B8022693E2A2AD953095B
:102DC000D20600D1013B0A889B029BB21A431F4BDB
:102DD00013439BB20B806378002B49D15033EA5ADE
:102DE000AA182378DB009B18174A99180B889B05B3
:102DF0009B0D0B8022693E2A1ED95309D20600D1B1
:102E0000013B0A889B029BB21A43104B13439BB2AF
:102E10000B802FE0002A05D10B880C4A13439BB28C
:102E20000B80D8E75308D20700D501330A889B02EC
:102E30009BB213430B80CEE7002A0FD10B88034AC5
:102E400013439BB20B8015E0060400000080FFFFD7
:102E5000020400008F8EFFFF8080FFFF5308D2071F
:102E600000D501330A889B029BB213430B8001E01B
:102E7000012B16D0E369002B00D1F8E423789B00E6
:102E8000EB181A8829490A408A4202D0002A00D049
:102E9000EDE41988264A1140264A0A4392B21A8064
:102EA000E5E44F33EA5AAA182378DB009B18224A3C
:102EB00094466344228A1A80DCE70023A3610B0056
:102EC0002DE7002B05D111881C48014389B21180E0
:102ED00043E75908D80700D501311088890289B223
:102EE0000143118039E7002B05D1138813490B43A7
:102EF0009BB21380BBE45908DB0700D5013113886E
:102F0000890289B20B431380B1E4012A00D0AEE4F8
:102F10004F32A95A69182278D200521806498C46B5
:102F200062449BB21380A2E40120AEE44040000062
:102F30008F8FFFFFC080FFFF060400000080FFFFAF
:102F400010B55C0812188020C0008446624406E078
:102F5000108802320870000A48700231013C002CCF
:102F6000F6D1DB0701D513880B7010BD2223038037
:102F700000487047B40000202223038000487047B7
:102F80009000002022230380004870476C0000203E
:102F9000AE239B00C35800221A7300207047000024
:102FA0000A230380004870475400002070B582B0A7
:102FB000AE239B00C5586B460022DA800B78603246
:102FC00014001C401A4224D0202C77D14B780A2BB5
:102FD00010D009D8022B12D0032B16D101222900C0
:102FE00000F0CDFD00246CE00B2B0ED18B782B6014
:102FF000002466E04B881B0A6B60002461E0291DF9
:10300000012200F0BCFD00245BE000F063FA022422
:1030100057E04E780A2E3AD013D8002E1BD0062E39
:1030200048D14B881B0A222B25D0212B2BD1CB88B2
:103030001A1C092B00D9092292B2234900F09FFDE6
:103040003FE00B2E36D1A7239B00C35C032B2DD171
:103050008B78AB6035E0A7239B00C35C032B03D0C8
:1030600000F038FA02242CE002226B46991D00F091
:1030700086FD340025E0CB881A1C472B00D9472257
:1030800092B21249DAE700F025FA022419E0A723E8
:103090009B00C35C032B03D000F01CFA022410E059
:1030A00029000831012200F06AFD0AE000F012FA5E
:1030B000022406E000F00EFA022402E000F00AFA10
:1030C0000224200002B070BD600000200C0000202F
:1030D00010B50400812100F016FF0023E362AE2347
:1030E0009B00E058002805D000F060FFAE239B0055
:1030F0000022E250002010BD10B50400042303227A
:10310000812100F0F4FE0123E362102000F04AFF69
:10311000AE239B00E050002803D00023037300205F
:1031200010BD0220FCE710B5AE24A40003591C3CDE
:10313000045D032C01D0002010BD1C7B002CFAD1B3
:1031400001341C7313000A00812100F019FFF2E71B
:1031500010B5002816D0AD239B00C358002B03D018
:10316000AD239B000024C450002902D0AC239B0057
:10317000C150A7239B000121C154027000F078FECA
:10318000002010BD0220FCE7002904D0AD239B00E5
:10319000C150002070470220FCE710B500F09EFEF1
:1031A000002010BD10B5AD239B00C358002B06D0E6
:1031B0001B689847002800D110BD0220FCE70220C0
:1031C000FAE710B5AD239B00C3585B689847002011
:1031D00010BD000070B50400AA239B00C51828008C
:1031E00000F064F9A5239B000122E250114BE25A42
:1031F000163BE2501033E15C1F230B40012B09D03A
:10320000022B0CD0002B0FD12900200000F028FB4E
:10321000002070BD2900200000F058FBF8E72900CD
:10322000200000F086FBF3E77F239943200000F0A5
:1032300073FEEDE7AE02000070B505000C00110052
:10324000002C38D1A5239B00C358032B03D0052B9A
:1032500028D020003DE002005532FF32D3681269C9
:1032600093420DD99B1A5530FF30C3609A4205D95D
:103270009AB2280000F099FC20002AE092B2F8E708
:10328000AD239B00C3581B69002B04D0A7229200DA
:10329000825C032A04D0280000F08FFC200018E094
:1032A0009847F8E7A5239B000022C250002100F0B8
:1032B00033FE20000DE0AD239B00C3589B69002B1B
:1032C00008D0A7229200825C032A05D121009847EA
:1032D000002070BD0220FCE70220FAE7F8B50500E7
:1032E0000C001100002C5BD1A5239B00C358022BBE
:1032F0000ED0042B01D0002B03D18021280000F038
:103300000BFEA8239B00EB5C012B43D02000F8BDF3
:10331000026A466AB24220D8C76931003800FCF719
:1033200055FF002906D1BE4204D8A6239B00EB58C6
:103330009F421ED3AD239B00EB58DB68002B04D0CB
:10334000A7229200AA5C032A21D08021280000F045
:10335000E3FD280000F03DFCD3E7921B026292B22D
:1033600000F01BFC002300220021280000F011FEC9
:10337000C7E70022280000F010FCA6239B000022D3
:10338000EA5000230021280000F003FEB9E72800DE
:103390009847DAE7A8239B000022EA542000B6E70A
:1033A000AD239B00C3585B69002B08D0A722920075
:1033B000825C032A05D1210098470020A7E702205C
:1033C000A5E70220A3E770B50400402300220021F6
:1033D00000F08DFD0125AC235B00E55040260C3349
:1033E000E650253BFF3B00228021200000F07FFDBE
:1033F000A5616662A7239B00E5540023A5229200E5
:10340000A35063601032A350AE239B00E358002BFF
:1034100006D0AD239B00E3585B680021200098474D
:10342000002070BD0174002070470000A7239B009E
:10343000C15C034A81540422C25400207047C04634
:103440009D020000A7239B00C35C042B01D0002039
:103450007047024BC25C013BC254F8E79D0200007A
:1034600010B5A7239B00C35C032B01D0002010BD27
:10347000AD239B00C358DB69002BF7D09847F5E7D5
:103480000300002002E00130C0B201331A78002AA4
:10349000F9D1704710B54B88012B00D010BDA9237E
:1034A0009B000122C25000F088FBF7E70B78037005
:1034B0004B7843708B78CA7812029B1843800B7943
:1034C0004A7912029B1883808B79CA7912029B1861
:1034D000C380704710B50400802100F01DFD00215D
:1034E000200000F019FD10BD30B583B005000C00C0
:1034F0006B460022DA804A88130A072B00D9B6E00F
:103500009B006549CB589F46AC239B00C3581B6862
:10351000007C6A46911D98476B4606331B88002B3A
:1035200003D0E288002A00D0A6E0E388002B00D177
:10353000AEE003B030BD037C002B09D1AD239B006E
:10354000C3589B6A6A46901D984702234370E3E77D
:10355000AD239B00C358DB6A6A46901D984702233F
:103560004370D9E7D2B2052A5DD892004B4B9B58E5
:103570009F46AC239B00C3585B68002B04D0007CA3
:103580006A46911D9847C7E72100FFF7A3FFD0E7E0
:10359000AC239B00C3589B68002B04D0007C6A4678
:1035A000911D9847B8E72100FFF794FFC1E7AC23CE
:1035B0009B00C358DB68002B04D0007C6A46911D39
:1035C0009847A9E72100FFF785FFB2E7AC239B00EE
:1035D000C3581B69002B04D0007C6A46911D984794
:1035E0009AE72100FFF776FFA3E7AC239B00C358BF
:1035F0005B69002B04D0007C6A46911D98478BE7DD
:103600002100FFF767FF94E7AC239B00C3589B6939
:10361000002B04D0007C6A46911D98477CE721006E
:10362000FFF758FF85E72100FFF754FF81E7037C90
:10363000002B07D1AD239B00C3585B6B6A46901DDE
:10364000984769E72100FFF745FF72E7037C002BED
:1036500009D1AD239B00C3581B6B6A46901D984748
:103660000723437058E72100FFF734FF61E721008B
:103670002800FFF72FFF5CE7191C934200D9111CAB
:103680008AB26B46D9800100280000F078FA4CE736
:10369000280000F092FA4CE7C8430008E84300080D
:1036A00070B504008B88002B23D1CB88002B20D150
:1036B0004B887F2B1DD87F251D40A7239B00C35C13
:1036C000032B0ED00D4BC554290000F050FC2000F8
:1036D00000F073FA002D07D0A7239B000222E254CA
:1036E0000AE0FFF7F7FE07E0A7239B000122E25460
:1036F00002E02000FFF7EEFE70BDC0469E02000013
:1037000070B504000D0089782A4B197001290FD873
:10371000A7239B00C35C022B0ED0032B23D02900D0
:10372000FFF7D8FE234B19782000FFF74AFD02E08F
:103730002900FFF7CFFE70BD002911D04160A723FB
:103740009B000322C254FFF72DFD022803D0200066
:1037500000F033FAEFE729002000FFF7BBFEEAE7AD
:1037600000F02BFAE7E7002911D0436899421ED0F8
:10377000D9B2FFF726FD0F4B197861602000FFF7E3
:1037800011FD02280ED0200000F017FAD3E7A7237E
:103790009B000222C2544160FFF713FD200000F09D
:1037A0000CFAC8E729002000FFF794FEC3E700F0F9
:1037B00004FAC0E78401002010B5CB88012B0BD19F
:1037C000A7239B00C35C022B09D9032B11D1011D38
:1037D000012200F0D4F901E0FFF77CFE10BD002BC0
:1037E00007D00023836001000831012200F0C7F9EF
:1037F000F4E7FFF76FFEF1E710B5A7239B00C35C6A
:10380000013B022B14D8CB88022B0ED10123C360BD
:10381000A9239B00C358002B01D00323C3600100E0
:103820000C31022200F0ABF910BDFFF753FEFBE7AD
:10383000FFF750FEF8E710B5A7239B00C35C013BE0
:10384000022B0AD84B88012B00D010BDA9239B0066
:103850000022C25000F0B1F9F7E7FFF73BFEF4E7B2
:1038600010B50A7860231340202B06D0402B04D0DB
:10387000002B09D0FFF72EFE04E0AD239B00C358B8
:103880009B689847002010BD4B78092B18D89B00E7
:103890000D4AD3589F46FFF727FEF3E7FFF700FFD7
:1038A000F0E7FFF72DFFEDE7FFF786FFEAE7FFF709
:1038B000A3FFE7E7FFF7EEFDE4E7FFF7BCFFE1E773
:1038C000FFF708FEDEE7C0460044000870B50500BB
:1038D0000C000A7860231340202B07D0402B05D022
:1038E000002B03D0FFF7F6FD002070BDA7239B003F
:1038F000EB5C013B022B17D82379012B0FD8AD23AA
:103900009B00EB589B68210028009847E388002B18
:10391000EAD10028E8D1280000F04FF9E4E72100BF
:103920002800FFF7D7FDDFE721002800FFF7D2FDD1
:10393000DAE770B5050088880A790B7860241C40A6
:10394000202C08D0402C06D0002C0DD02800FFF7EA
:10395000C1FD002406E0AD239B00EB589B682800C6
:1039600098470024200070BD202C0AD04E78012EEC
:103970003ED0032E0DD0002E64D02800FFF7AAFD04
:10398000F0E7AD239B00EB589B68280098470400A4
:10399000E8E7A7239B00EB5C022B05D0032B14D098
:1039A0002800FFF797FDDDE7002A01D0802A03D128
:1039B0002800FFF78FFDD5E71100280000F0ACFAD2
:1039C0008021280000F0A8FACCE74B88002B06D114
:1039D000002A04D0802A02D0CB88002B03D02800F4
:1039E00000F0EBF8BEE71100280000F095FAF6E7CA
:1039F000A7239B00EB5C022B05D0032B14D02800DF
:103A0000FFF768FDAEE7002A01D0802A03D1280025
:103A1000FFF760FDA6E71100280000F07DFA802185
:103A2000280000F079FA9DE74B88002B9AD15306C5
:103A300003D1280000F0C1F894E71100280000F03D
:103A400074FAF6E7A7239B00EB5C022B06D0032B4E
:103A500029D02800FFF73EFD340083E7002A01D07B
:103A6000802A12D1000615D47F2313409900C9186B
:103A700089005131FF316918043100230B600222A3
:103A8000280000F07CF834006CE72800FFF722FDE6
:103A9000340067E77F2313409900C918890010316B
:103AA00069180431E9E744B2000622D40F2010401F
:103AB00083001B189B00EB185933FF331B68002B46
:103AC00025D0002C28DB7F2313409C00E418A400A1
:103AD0005134FF342C190434002A01D0802A24D117
:103AE0000023236002222100280000F048F834005F
:103AF00038E70F20104083001B189B00EB189B69D0
:103B0000002BDED12800FFF7E5FC34002AE728006F
:103B1000FFF7E0FC340025E77F2313409C00E41806
:103B2000A40010342C190434D6E71100280000F04A
:103B300005FA002802D001232360D3E70023236085
:103B4000D0E770B504000D001600002816D0FFF76E
:103B500097FC013043009BB233802B7003236B70C2
:103B6000013B08E001345A1CD2B2E8540233DBB204
:103B7000AA180021117020780028F3D170BD10B56B
:103B80001300A522920002248450C36103620A003C
:103B9000002100F0F5F9002010BD10B513000A0057
:103BA000002100F0EDF9002010BD10B513000A004F
:103BB000002100F0EEF9002010BD10B5A5239B00F8
:103BC0000422C25000230022002100F0D9F9002075
:103BD00010BD10B5A5239B000522C2500023002272
:103BE000002100F0D6F9002010BD000010B50E49EC
:103BF0000E480022FFF7ACFA00280BD10C490B4805
:103C0000FFF7C2FA002808D10848FFF7C6FA0028D3
:103C100006D110BDFCF79CFBF0E7FCF799FBF3E73E
:103C2000FCF796FBF5E7C046440100208801002020
:103C3000D800002012230B8000487047300100207C
:103C400004230B80004870472C01002030B500236E
:103C50000AE05D0037344C5500015C0001340C195A
:103C6000002525700133DBB2934206D2040F092CE4
:103C7000EFD85D0030344C55EEE730BD10B5002074
:103C8000002800D110BD064C08222100FFF7DEFFFE
:103C90002100103104220020FFF7D8FFF2E7C046D0
:103CA0001201002010B51A230B80FFF7E7FF01482F
:103CB00010BDC0461001002010B50A00002805D133
:103CC00005490648FFF73DFF034810BD0249034878
:103CD000FFF737FFF8E7C0464C04002028440008EF
:103CE00010B50A00034C04482100FFF72AFF20000A
:103CF00010BDC0464C0400204044000810B50A0026
:103D0000002805D105490648FFF71BFF034810BDF1
:103D100002490348FFF715FFF8E7C0464C040020AE
:103D20005444000810B50A00002805D1054906488A
:103D3000FFF707FF034810BD02490348FFF701FFE3
:103D4000F8E7C0464C04002060440008022804D074
:103D500005D8002800D0022070470120FCE702208F
:103D6000FAE710B5FCF7F6FA10BD000010B50268CE
:103D7000094B9A4200D010BD084A916B80231B0466
:103D80000B439363002200211F20FCF789FC1F20B6
:103D9000FCF78AFCEFE7C046005C004000100240E0
:103DA00010B50100BC239B00C058403B9C466144B9
:103DB000FFF710FA10BD10B50300BC229200805826
:103DC0008A005218D2009B187D33FF331A68FFF720
:103DD00033FA10BD10B50300BC22920080588A004F
:103DE0005218D2009B18DA6BFFF778FA10BD10B5A5
:103DF000BC239B00C058FFF733FB10BD70B5040017
:103E00008368022B09D1BC25AD0060590121FFF761
:103E100009FB6059FFF7D7FA70BDFCF799FAF2E792
:103E200010B50400BC239B00C058FFF7FFFAA3693C
:103E3000002B04D0024A136906210B43136110BD05
:103E400000ED00E010B504008369002B05D1BC2310
:103E50009B00E058FFF7F6FA10BD044A13690621EB
:103E60008B431361FFF77DFFF1E7C04600ED00E0F3
:103E700070B504001748BC239B00C450303BE05091
:103E8000154B036008234360063B836003610023F6
:103E90008361C3610362FCF76DFD002816D1B02574
:103EA000AD006059182300220021FDF782FC605903
:103EB000582300228021FDF77CFC605980235B00A1
:103EC00000228121FDF775FC002070BDFCF740FA4F
:103ED000E5E7C04660060020005C004010B5B02356
:103EE0009B00C058FCF7B6FDFFF730FF10BD10B5C2
:103EF00014001A00B0239B00C0582300FDF72AFBD2
:103F0000FFF724FF10BD10B5B0239B00C058FDF78C
:103F10005CFBFFF71BFF10BD10B5B0239B00C05822
:103F2000FDF7D3FBFFF712FF10BD10B5B0239B00C8
:103F3000C058FDF701FCFFF709FF10BDB0239B003F
:103F4000C3584AB2002A09DB7F2211408A00521866
:103F5000D2009B186B33FF33187870477F221140D3
:103F600001318A005218D2009B189878F5E710B5F5
:103F7000B0239B00C058FDF717FAFFF7E7FE10BD0E
:103F800010B5B024A4000059FDF778FBFFF7DEFE62
:103F900010BD10B5B024A4000059FDF74AFBFFF78F
:103FA000D5FE10BD004870474C0600207047000049
:103FB000F0B5CE469946030C9C46130447461B0CAD
:103FC0001D000E0061460404240C80B50700100C8F
:103FD0004B436543414360432C0CC01824188C4666
:103FE000A34203D980235B029846C44449467943DF
:103FF0005643230C2D042D0C8919634424046019A5
:10400000C918C0BCB946B046F0BDC046F0B5574669
:104010004E464546DE46E0B504000D009246994600
:1040200083B08B4230D82DD049465046FCF7F4F887
:10403000290006002000FCF7EFF8331A9846203BD1
:1040400034D49B4653465A46934042461F0053463B
:1040500093401E00AF423BD8AF4200D179E05B46AF
:10406000A41BBD41002B00DA76E000220023009261
:10407000019301235A469340019301234246934002
:10408000009329E08242CFD90022002300920193BD
:104090000C9B002B01D01C605D600098019903B05F
:1040A000F0BCBB46B246A946A046F0BD42469B4680
:1040B00020239B1A5246DA40414613004A468A4062
:1040C000170042461F43534693401E00AF42C3D9D8
:1040D00000220023009201934346002BD8D0FB0717
:1040E00072081A4346467B080EE0AB4201D1A24259
:1040F0000CD8A41A9D41012024196D410021013ED4
:1041000024184D41002E06D0AB42EED9013E2419B1
:104110006D41002EF8D1009801995B460019694164
:10412000002B24DB2B005A464446D3402A00E240B1
:104130001C005B461500002B2ADB26009E40330046
:1041400026004746BE403200801A994100900191F6
:104150009EE7A342BCD882E74246202300219B1A57
:104160000022009101920122DA40019285E7424645
:1041700020239B1A2A0046469A402300F3404446D7
:1041800013432A00E2401C005B461500002BD4DAE2
:1041900042462F002023260097409B1ADE403B001A
:1041A0003343CDE7F0B50500830749D0541E002AFC
:1041B00045D003000326CAB202E00135013C3ED3DC
:1041C00001332A703342F8D1032C30D9FF220A4040
:1041D0001502AD182A04AD180F2C34D92700103F52
:1041E0003F093E01B4461E001A00103666441560B1
:1041F00055609560D56010329642F8D101373F0185
:10420000DB190F270C22274022403C00002A0ED049
:104210003E1FB608B400A4461A001C1D644420C208
:10422000A242FCD103240136B6009B193C40002C6D
:1042300005D0C9B21C19197001339C42FBD1F0BDE5
:1042400003001400C0E72700E2E7C04670B50D4B3D
:104250000D4D5E1BB610AB4205D0002408CD0134D5
:104260009847A642FAD800F095F8084B084D5E1B17
:10427000B610AB4205D0002408CD01349847A642C1
:10428000FAD870BD784400087844000880440008DB
:10429000784400087047C0467047C046034B10B5CD
:1042A000002B02D0024800F005F810BD000000000D
:1042B000C542000810B5010000230022002000F0D4
:1042C00015F810BD70B5074C074D641BA41005D040
:1042D000013CA300EB589847002CF9D100F060F89E
:1042E00070BDC0468444000880440008F0B5D6463E
:1042F0004F4646469846244BC0B5060018689A4675
:104300000F009146FFF7C6FF204B1D68002D32D0ED
:1043100053466C6818681F2C30DC002E0CD1631CCF
:104320000234A4006B606751FFF7B6FF0020E0BCC9
:10433000BA46B146A846F0BD49468822A300EB180C
:104340009950C42149008C46AC446146873AA2404A
:104350000968914611436246116084214246490032
:104360005A50022EDBD129004A468D31FF310B68AD
:1043700013430B60D3E7064D1D60C9E7FFF78CFFC1
:1043800001204042D3E7C0466001002058090020C8
:104390005C090020F8B5C046F8BC08BC9E467047D2
:0C43A000F8B5C046F8BC08BC9E4670474B
:1043AC00030406080C101820300000000000000068
:1043BC000000000001020304060708096E3600081D
:1043CC000835000836350008643500086E360008DC
:1043DC006E3600082E3600084C3600087235000880
:1043EC0090350008AE350008CC350008EA350008D9
:1043FC0008360008AE380008BA380008C038000883
:10440C00B4380008C03800089C38000896380008FA
:10441C00C0380008A8380008A238000853544D339F
:10442C00322048756D616E20696E746572666163C9
:10443C006500000053544D6963726F656C6563745D
:10444C00726F6E696373000048494420436F6E6657
:10445C006967000048494420496E7465726661635F
:04446C0065000000E7
:084470009CFBFF7F010000002E
:084478009D420008E10200086A
:04448000B502000879
:1044840000002000010000000400000005010902F2
:10449400A1010901A1000509190129081500250137
:1044A4009508750181020501093009310938158122
:1044B400257F750895038106C0093C05FF09011590
:1044C40000250175019502B12275069501B101C05F
:1044D400000000000A060002000000400100000085
:1044E40009211101000122470000000009022200F5
:1044F400010100E032090400000103010200092166
:10450400110100012247000705810304000A00008D
:1045140009022200010100E0320904000001030144
:10452400020009211101000122470007058103044B
:104534000007000009022200010100E03209040022
:1045440000010301020009211101000122470007B3
:1045540005810304000A0000F9300008D130000886
:10456400AD2F00080000000000000000912F00089B
:104574000000000000000000000000000000000037
:10458400792F00086D2F0008852F0008A12F00083F
:104594001A030000000000000000000000000000FA
:1045A40000000000000000000000000004030904F3
:1045B400120100020000004083042B570002010294
:1045C40003010000353C0008413C0008E13C0008C0
:1045D400B93C0008A53C0008FD3C0008253D000846
:0445E4005409002056
:04000005080004F5F6
:00000001FF
